{
  "contractName": "Patient",
  "abi": [
    {
      "constant": true,
      "inputs": [],
      "name": "reportCount",
      "outputs": [
        {
          "name": "",
          "type": "uint256"
        }
      ],
      "payable": false,
      "stateMutability": "view",
      "type": "function"
    },
    {
      "constant": true,
      "inputs": [
        {
          "name": "",
          "type": "uint256"
        }
      ],
      "name": "records",
      "outputs": [
        {
          "name": "id",
          "type": "uint256"
        },
        {
          "name": "name",
          "type": "string"
        },
        {
          "name": "age",
          "type": "uint256"
        },
        {
          "name": "createdBy",
          "type": "address"
        }
      ],
      "payable": false,
      "stateMutability": "view",
      "type": "function"
    },
    {
      "constant": true,
      "inputs": [
        {
          "name": "",
          "type": "uint256"
        }
      ],
      "name": "problem",
      "outputs": [
        {
          "name": "id",
          "type": "uint256"
        },
        {
          "name": "content",
          "type": "string"
        },
        {
          "name": "suggestion",
          "type": "string"
        },
        {
          "name": "userRef",
          "type": "uint256"
        },
        {
          "name": "createdBy",
          "type": "address"
        }
      ],
      "payable": false,
      "stateMutability": "view",
      "type": "function"
    },
    {
      "constant": true,
      "inputs": [],
      "name": "problemCount",
      "outputs": [
        {
          "name": "",
          "type": "uint256"
        }
      ],
      "payable": false,
      "stateMutability": "view",
      "type": "function"
    },
    {
      "constant": true,
      "inputs": [],
      "name": "recordsCount",
      "outputs": [
        {
          "name": "",
          "type": "uint256"
        }
      ],
      "payable": false,
      "stateMutability": "view",
      "type": "function"
    },
    {
      "inputs": [],
      "payable": false,
      "stateMutability": "nonpayable",
      "type": "constructor"
    },
    {
      "anonymous": false,
      "inputs": [
        {
          "indexed": false,
          "name": "id",
          "type": "uint256"
        },
        {
          "indexed": false,
          "name": "name",
          "type": "string"
        },
        {
          "indexed": false,
          "name": "age",
          "type": "uint256"
        },
        {
          "indexed": false,
          "name": "craetedBy",
          "type": "address"
        }
      ],
      "name": "RecordCreated",
      "type": "event"
    },
    {
      "constant": false,
      "inputs": [
        {
          "name": "_name",
          "type": "string"
        },
        {
          "name": "_age",
          "type": "uint256"
        },
        {
          "name": "_sender",
          "type": "address"
        }
      ],
      "name": "createRecords",
      "outputs": [],
      "payable": false,
      "stateMutability": "nonpayable",
      "type": "function"
    },
    {
      "constant": false,
      "inputs": [
        {
          "name": "_problem",
          "type": "string"
        },
        {
          "name": "_suggestion",
          "type": "string"
        },
        {
          "name": "_user",
          "type": "uint256"
        },
        {
          "name": "_sender",
          "type": "address"
        }
      ],
      "name": "insertProblem",
      "outputs": [],
      "payable": false,
      "stateMutability": "nonpayable",
      "type": "function"
    }
  ],
  "bytecode": "0x6080604052600080556000600155600060025534801561001e57600080fd5b506100666040518060400160405280600681526020017f6b68616c6964000000000000000000000000000000000000000000000000000081525060183361006b60201b60201c565b610268565b6000805460019081018083556040805160808101825282815260208082018981528284018990526001600160a01b03881660608401529386526003815291909420845181559151805192936100c8939085019291909101906101cd565b506040820151816002015560608201518160030160006101000a8154816001600160a01b0302191690836001600160a01b031602179055509050507fac4189a1e8a05e52347eac46e21c0e3256c23c7bfca58ef576f2d88a40d0e0be6000548484846040518085815260200180602001848152602001836001600160a01b03166001600160a01b03168152602001828103825285818151815260200191508051906020019080838360005b8381101561018b578181015183820152602001610173565b50505050905090810190601f1680156101b85780820380516001836020036101000a031916815260200191505b509550505050505060405180910390a1505050565b828054600181600116156101000203166002900490600052602060002090601f016020900481019282601f1061020e57805160ff191683800117855561023b565b8280016001018555821561023b579182015b8281111561023b578251825591602001919060010190610220565b5061024792915061024b565b5090565b61026591905b808211156102475760008155600101610251565b90565b610974806102776000396000f3fe608060405234801561001057600080fd5b506004361061007d5760003560e01c80633b43bf201161005b5780633b43bf20146102045780639115e71b14610326578063e0a71a321461032e578063eb3dbf83146104695761007d565b80630660d70714610082578063185c6f84146101385780633446106714610152575b600080fd5b6101366004803603606081101561009857600080fd5b8101906020810181356401000000008111156100b357600080fd5b8201836020820111156100c557600080fd5b803590602001918460018302840111640100000000831117156100e757600080fd5b91908080601f01602080910402602001604051908101604052809392919081815260200183838082843760009201919091525092955050823593505050602001356001600160a01b0316610471565b005b6101406105d3565b60408051918252519081900360200190f35b61016f6004803603602081101561016857600080fd5b50356105d9565b604080518581529081018390526001600160a01b038216606082015260806020808301828152865192840192909252855160a084019187019080838360005b838110156101c65781810151838201526020016101ae565b50505050905090810190601f1680156101f35780820380516001836020036101000a031916815260200191505b509550505050505060405180910390f35b6102216004803603602081101561021a57600080fd5b5035610696565b604051808681526020018060200180602001858152602001846001600160a01b03166001600160a01b03168152602001838103835287818151815260200191508051906020019080838360005b8381101561028657818101518382015260200161026e565b50505050905090810190601f1680156102b35780820380516001836020036101000a031916815260200191505b50838103825286518152865160209182019188019080838360005b838110156102e65781810151838201526020016102ce565b50505050905090810190601f1680156103135780820380516001836020036101000a031916815260200191505b5097505050505050505060405180910390f35b6101406107e5565b6101366004803603608081101561034457600080fd5b81019060208101813564010000000081111561035f57600080fd5b82018360208201111561037157600080fd5b8035906020019184600183028401116401000000008311171561039357600080fd5b91908080601f01602080910402602001604051908101604052809392919081815260200183838082843760009201919091525092959493602081019350359150506401000000008111156103e657600080fd5b8201836020820111156103f857600080fd5b8035906020019184600183028401116401000000008311171561041a57600080fd5b91908080601f01602080910402602001604051908101604052809392919081815260200183838082843760009201919091525092955050823593505050602001356001600160a01b03166107eb565b6101406108a7565b6000805460019081018083556040805160808101825282815260208082018981528284018990526001600160a01b03881660608401529386526003815291909420845181559151805192936104ce939085019291909101906108ad565b506040820151816002015560608201518160030160006101000a8154816001600160a01b0302191690836001600160a01b031602179055509050507fac4189a1e8a05e52347eac46e21c0e3256c23c7bfca58ef576f2d88a40d0e0be6000548484846040518085815260200180602001848152602001836001600160a01b03166001600160a01b03168152602001828103825285818151815260200191508051906020019080838360005b83811015610591578181015183820152602001610579565b50505050905090810190601f1680156105be5780820380516001836020036101000a031916815260200191505b509550505050505060405180910390a1505050565b60015481565b6003602090815260009182526040918290208054600180830180548651600293821615610100026000190190911692909204601f8101869004860283018601909652858252919492939092908301828280156106765780601f1061064b57610100808354040283529160200191610676565b820191906000526020600020905b81548152906001019060200180831161065957829003601f168201915b5050505060028301546003909301549192916001600160a01b0316905084565b6004602090815260009182526040918290208054600180830180548651600293821615610100026000190190911692909204601f8101869004860283018601909652858252919492939092908301828280156107335780601f1061070857610100808354040283529160200191610733565b820191906000526020600020905b81548152906001019060200180831161071657829003601f168201915b50505060028085018054604080516020601f60001961010060018716150201909416959095049283018590048502810185019091528181529596959450909250908301828280156107c55780601f1061079a576101008083540402835291602001916107c5565b820191906000526020600020905b8154815290600101906020018083116107a857829003601f168201915b5050505060038301546004909301549192916001600160a01b0316905085565b60025481565b600280546001908101918290556040805160a0810182528381526020808201898152828401899052606083018890526001600160a01b03871660808401526000958652600482529290942081518155915180519194929361085293908501929101906108ad565b506040820151805161086e9160028401916020909101906108ad565b5060608201516003820155608090910151600490910180546001600160a01b0319166001600160a01b0390921691909117905550505050565b60005481565b828054600181600116156101000203166002900490600052602060002090601f016020900481019282601f106108ee57805160ff191683800117855561091b565b8280016001018555821561091b579182015b8281111561091b578251825591602001919060010190610900565b5061092792915061092b565b5090565b61094591905b808211156109275760008155600101610931565b9056fea165627a7a723058206793286aa05ba1943c737dc049a90ca1176181f54457661d881c9a4b524a06600029",
  "source": "pragma solidity >=0.4.21 <0.6.0;\r\n\r\ncontract Patient {\r\n  uint public recordsCount =0;\r\n  uint public reportCount = 0 ;\r\n  uint public problemCount = 0 ;\r\n  struct Record {\r\n    uint id ;\r\n    string name ;\r\n    uint age ;\r\n    address createdBy ;\r\n  }\r\n\r\n  /* struct Report{\r\n    uint id ;\r\n    string medicine  ;\r\n    uint qty ;\r\n    uint prblemRef ;\r\n    uint userRef ;\r\n    address createdBy ;\r\n  } */\r\n  struct Problem{\r\n    uint id ;\r\n    string content ;\r\n    string suggestion;\r\n    uint userRef ;\r\n    address createdBy ;\r\n  }\r\n  mapping (uint => Record) public records ;\r\n  //mapping (uint => Report) public reports ;\r\n  mapping(uint => Problem) public problem ;\r\n  event RecordCreated(\r\n      uint id ,\r\n      string name ,\r\n      uint age ,\r\n      address  craetedBy\r\n    );\r\n    constructor() public{\r\n      createRecords(\"khalid\" , 24  , msg.sender);\r\n    }\r\n    function createRecords(string memory _name , uint _age  ,address _sender) public {\r\n      recordsCount ++ ;\r\n      records[recordsCount] = Record(recordsCount , _name , _age  , _sender );\r\n      emit RecordCreated(recordsCount, _name, _age , _sender );\r\n    }\r\n    function insertProblem(string memory _problem , string memory _suggestion ,  uint _user  , address _sender) public {\r\n      problemCount ++ ;\r\n      problem[problemCount] = Problem(problemCount , _problem ,_suggestion ,  _user , _sender );\r\n    }\r\n\r\n}\r\n",
  "sourcePath": "E:/project/hospital/contracts/Patient.sol",
  "compiler": {
    "name": "solc",
    "version": "0.5.8+commit.23d335f2.Emscripten.clang"
  },
  "schemaVersion": "3.0.15",
  "updatedAt": "2019-10-13T08:43:58.533Z",
  "devdoc": {
    "methods": {}
  },
  "userdoc": {
    "methods": {}
  }
}